:0400000055EF3BF08D
:10769E00819A818812008198818A1200000EF86EFC
:1076AE0000019CEF3BF0016E01C083FF0C0E8112B6
:1076BE00A60EE82EFED700D08196A60EE82EFED797
:1076CE0000D01200016E01C083FF81948186A60E48
:1076DE00E82EFED700D08196A60EE82EFED700D05B
:1076EE0012000D0E026EFC0EE82EFED7022EFCD7F7
:1076FE004FEC3BF03F0E69EC3BF052EC3BF03F0E93
:10770E0069EC3BF0C80E00D0E82EFDD74FEC3BF0F5
:10771E00C00E69EC3BF052EC3BF0C00E69EC3BF056
:10772E00C80E00D0E82EFDD712000F015C6B5E6B09
:10773E00816A836A956AC30E936E78EC3BF0056A94
:10774E004FEC3BF00550070BB80969EC3BF0066AAD
:10775E000550800DFF0EF324036E7B0EF420046E95
:10776E0006500326000E042203C0F6FF04C0F7FFE6
:10777E000800F5505AEC3BF0062A3F0E0664CAEF9D
:10778E003BF0CCEF3BF0AFEF3BF052EC3BF0055053
:10779E00070BB80969EC3BF0400E066E0550800DE4
:1077AE00FF0EF324036E7B0EF420046E06500326A8
:1077BE00000E042203C0F6FF04C0F7FF0800F550C8
:1077CE005AEC3BF0062A7F0E0664F0EF3BF0F2EF28
:1077DE003BF0D5EF3BF0052A070E0564F9EF3BF0C1
:1077EE00FBEF3BF0A7EF3BF0FBEF3BF000EF00F0C1
:1077FE0000FFFFFFFFFFFFFFFFFFBF0307030307AE
:10780E000307030307030307030703030703030722
:10781E00030703030703030703070303070387C3D2
:10782E00E7F3F7FF7F3F3F1F1F0F0F0F07070707F6
:10783E0007070707070757FFFFFF0703E7E3E7E31E
:10784E00E7E3E7E3E7E3E7F3E74707D7FFFFFF0FDA
:10785E00030703070707070707070F0F1F1F3F7FC2
:10786E007FFFFFFFFFFFFFFFFFFFFFFFFFFFFFFF9A
:10787E00FFFFFFFFFFFFFFFFFFFFF700800080808D
:10788E0000808000808000800080000000000000EA
:10789E00000000000000000080E0F8FC7E3F1F07A3
:1078AE00030100000000000000000000808080C086
:1078BE00C0C0C0C0C0C0FBFFFFFF0000FFFFFFFF46
:1078CE00FFFFFFFFFFFFFFFFFF0150FFFFFFE5E0A0
:1078DE00E0E0E0C0E0C0C0808000000000000000DA
:1078EE000001030FFFFFFFFFFFFFFFFFFFFFFFFF83
:1078FE00FFFFFFFFFFFFFFFFFFFFFFFFFFFFFFFF8A
:10790E00FFFFFFFFFFFFFFFFFFFF10000000000063
:10791E000000000000C0F8FEFF3F0701000000005D
:10792E000000000080C0F0F8FCFEFFFFFFFFFFFF2D
:10793E00FFFFFFFFFFFFFFFFFFFF0002FFFFFFFF45
:10794E00FFFFFFFFFFFFFFFF2500FFFFFFFFFFFF12
:10795E00FFFFFFFFFFFFFFFFFF1E00000000000004
:10796E0000000000F5FFFFFFFFFFFFFFFFFFFFFF1F
:10797E00FFFFFFFFFFFFFFFFFFFFFFFFFFFFFFFF09
:10798E00FFFFFFFFFFFFFFFFFFFF490000000000AA
:10799E0000000000E8FFFFFF0500000000000000EF
:1079AE00000000FCFFFFFFFFFFFFFFFFFFFFFFFFD9
:1079BE00FFFFFFFFFFFFFFFFFFFF4000FFFFFFFF87
:1079CE00FFFFFFFFFFFFFFFF0055FFFFFF03030356
:1079DE00030303030301010100000000000040E067
:1079EE00F0F8FCFFFFFFFFFFFFFFFFFFFFFFFFFFB2
:1079FE00FFFFFFFFFFFFFFFFFFFFFFFFFFFFFFFF89
:107A0E00FFFFFFFFFFFFFFFFFFFF920000000000E0
:107A1E00000000001BFFFFFF000000000000000040
:107A2E00000000FFFFFFFFFFFFFFFFFFFFFFFFFF55
:107A3E00FFFFFFFFFFFFFFFFFFFFFFE0011FFFFF45
:107A4E00FFFFFFFFFFFFFFD600BBFFFFFFF0F0F0D1
:107A5E00F0F0F0F0F0F0E0E0C08000000000000078
:107A6E000101070F1FFFFFFFFFFFFFFFFFFFFFFFDC
:107A7E00FFFFFFFFFFFFFFFFFFFFFFFFFFFFFFFF08
:107A8E00FFFFFFFFFFFFFFFFFFFF240000000000CE
:107A9E0000000000000F7FFFFFF0800000000000DC
:107AAE0000000000070F3F7FFFFFFFFFFFFFFFFFFC
:107ABE00FFFFFFFFFFFFFFFFFFFFFFFFFFF8E18765
:107ACE001F7FFFFFFFFFFFFE0015FFFFFFFFFFFF02
:107ADE00FFFFFFFFFFFFFFFFFFFF3E000000000064
:107AEE00000000000000FFFFFFFFFFFFFFFFFFFF92
:107AFE00FFFFFFFFFFFFFFFFFFFFFFFFFFFFFFFF88
:107B0E00FFFFFFFFFFFFFFFFFFFF29000000000048
:107B1E0000000000000000035FFFFFFCF8E0C080E3
:107B2E000000000000000000000101030707070726
:107B3E000F070F070F070F070707030303071F7F23
:107B4E00FEF8F1C78F1F7FFF54003FFFFFFF87072F
:107B5E0007070707030703030100000000000000EA
:107B6E00000000C0E0FAFFFFFFFFFFFFFFFFFFFF77
:107B7E00FFFFFFFFFFFFFFFFFFFFFFFFFFFFFFFF07
:107B8E00FFFFFFFFFFFFFFFFFFFFE9E0C0E0E0C0E8
:107B9E00E0E0C0E0E0C0E0E0E5FFFFFFFFFFFFFF39
:107BAE00FFFEFCFCF8F0F0F0E0E0C0C0C0C080C00A
:107BBE0080C080C080C080C0C0C0C0C0E0E0E0F027
:107BCE00F0FBFFFFFFFEFEF8F8F0E0EFFFFFFEE038
:107BDE00C0C0C0C0C0E0C0E0E0E0E0F0F0F0F8FCF3
:107BEE00FCFEFFFFFFFFFFFFFFFFFFFFFFFFFFFF9B
:107BFE00FFFFFFFFFFFFFFFFFFFFBF0307030307AB
:107C0E00030703030703030703070303070303071E
:107C1E00030703030703030703070303070387C3CE
:107C2E00E7F3F7FF7F3F3F1F1F0F0F0F07070707F2
:107C3E0007070707070757FFFFFF0703E7E3E7E31A
:107C4E00E7E3E7E3E7E3E7F3E74707D7FFFFFF0FD6
:107C5E00030703070707070707070F0F1F1F3F7FBE
:107C6E007FFFFFFFFFFFFFFFFFFFFFFFFFFFFFFF96
:107C7E00FFFFFFFFFFFFFFFFFFFFF7008000808089
:107C8E0000808000808000800080000000000000E6
:107C9E00000000000000000080E0F8FC7E3F1F079F
:107CAE00030100000000000000000000808080C082
:107CBE00C0C0C0C0C0C0FBFFFFFF0000FFFFFFFF42
:107CCE00FFFFFFFFFFFFFFFFFF0150FFFFFFE5E09C
:107CDE00E0E0E0C0E0C0C0808000000000000000D6
:107CEE000001030FFFFFFFFFFFFFFFFFFFFFFFFF7F
:107CFE00FFFFFFFFFFFFFFFFFFFFFFFFFFFFFFFF86
:107D0E00FFFFFFFFFFFFFFFFFFFF1000000000005F
:107D1E000000000000C0F8FEFF3F07010000000059
:107D2E000000000080C0F0F8FCFEFFFFFFFFFFFF29
:107D3E00FFFFFFFFFFFFFFFFFFFF0002FFFFFFFF41
:107D4E00FFFFFFFFFFFFFFFF2500FFFFFFFFFFFF0E
:107D5E00FFFFFFFFFFFFFFFFFF1E00000000000000
:107D6E0000000000F5FFFFFFFFFFFFFFFFFFFFFF1B
:107D7E00FFFFFFFFFFFFFFFFFFFFFFFFFFFFFFFF05
:107D8E00FFFFFFFFFFFFFFFFFFFF490000000000A6
:107D9E0000000000E8FFFFFF0500000000000000EB
:107DAE00000000FCFFFFFFFFFFFFFFFFFFFFFFFFD5
:107DBE00FFFFFFFFFFFFFFFFFFFF4000FFFFFFFF83
:107DCE00FFFFFFFFFFFFFFFF0055FFFFFF03030352
:107DDE00030303030301010100000000000040E063
:107DEE00F0F8FCFFFFFFFFFFFFFFFFFFFFFFFFFFAE
:107DFE00FFFFFFFFFFFFFFFFFFFFFFFFFFFFFFFF85
:107E0E00FFFFFFFFFFFFFFFFFFFF920000000000DC
:107E1E00000000001BFFFFFF00000000000000003C
:107E2E00000000FFFFFFFFFFFFFFFFFFFFFFFFFF51
:107E3E00FFFFFFFFFFFFFFFFFFFFFFE0011FFFFF41
:107E4E00FFFFFFFFFFFFFFD600BBFFFFFFF0F0F0CD
:107E5E00F0F0F0F0F0F0E0E0C08000000000000074
:107E6E000101070F1FFFFFFFFFFFFFFFFFFFFFFFD8
:107E7E00FFFFFFFFFFFFFFFFFFFFFFFFFFFFFFFF04
:107E8E00FFFFFFFFFFFFFFFFFFFF240000000000CA
:107E9E0000000000000F7FFFFFF0800000000000D8
:107EAE0000000000070F3F7FFFFFFFFFFFFFFFFFF8
:107EBE00FFFFFFFFFFFFFFFFFFFFFFFFFFF8E18761
:107ECE001F7FFFFFFFFFFFFE0015FFFFFFFFFFFFFE
:107EDE00FFFFFFFFFFFFFFFFFFFF3E000000000060
:107EEE00000000000000FFFFFFFFFFFFFFFFFFFF8E
:107EFE00FFFFFFFFFFFFFFFFFFFFFFFFFFFFFFFF84
:107F0E00FFFFFFFFFFFFFFFFFFFF29000000000044
:107F1E0000000000000000035FFFFFFCF8E0C080DF
:107F2E000000000000000000000101030707070722
:107F3E000F070F070F070F070707030303071F7F1F
:107F4E00FEF8F1C78F1F7FFF54003FFFFFFF87072B
:107F5E0007070707030703030100000000000000E6
:107F6E00000000C0E0FAFFFFFFFFFFFFFFFFFFFF73
:107F7E00FFFFFFFFFFFFFFFFFFFFFFFFFFFFFFFF03
:107F8E00FFFFFFFFFFFFFFFFFFFFE9E0C0E0E0C0E4
:107F9E00E0E0C0E0E0C0E0E0E5FFFFFFFFFFFFFF35
:107FAE00FFFEFCFCF8F0F0F0E0E0C0C0C0C080C006
:107FBE0080C080C080C080C0C0C0C0C0E0E0E0F023
:107FCE00F0FBFFFFFFFEFEF8F8F0E0EFFFFFFEE034
:107FDE00C0C0C0C0C0E0C0E0E0E0E0F0F0F0F8FCEF
:107FEE00FCFEFFFFFFFFFFFFFFFFFFFFFFFFFFFF97
:027FFE00FF0082
:020000040030CA
:0E00000000215F3CFFD381FF0FC00FE00F40D7
:00000001FF
